:020000040000FA
:100000000C944C120C94CCE40C94A1E40C9476E483
:100010000C944BE40C9420E40C94F5E30C94CAE3A8
:100020000C949FE30C947D120C947D120C947D1221
:100030000C947D120C947D120C947D120C9419ED8D
:100040000C947D120C94828A0C9498880C9401CDA7
:100050000C947D120C947D120C947D120C9455E33B
:100060000C947D120C94D9E60C94AFE60C947D129E
:100070000C947D120C947D120C947D120C947D12C4
:100080000D94D9130D944A130D94BB120C947D1248
:100090000C947D120C947D120C947D120C947D12A4
:1000A0000C947D120C947D120D940E110D942C1253
:1000B0000D949D110C947D120C947D120D943210B0
:1000C0000D94560F0D947A0E0C947D120C947D12A3
:1000D0000C947D120C947D120C9479E60C944FE6EE
:1000E0000C947D120C949FBE0C9488D20C942142E7
:1000F0000C94E07D0C94F5980C940D970C94C29898
:100100000C94F1960C94E5960C9459960C94D39615
:100110000C94EDB10C94A3390C94A5830D943E047A
:100120000C9434970C94C27F0D94B1240C9422B992
:100130000C9411A80C94F8A10C941D980C94899619
:100140000C9449930C9411980C9452940C9473EA67
:100150000C94B4780C9429410C948A930C946FEA13
:100160000C9483960C9462960C941C990C94899E22
:100170000D94A1030C94AB990C94D8810C943197F5
:100180000C94AEA50C9496940C94BC300C94DE9513
:100190000C9468960C940C800C94EF980C9479D085
:1001A0000C9496B30C9442620C94BEDD0C946E7E5B
:1001B0000C948A990C946F4D0C949E960C946999AA
:1001C0000C94A3240C945C960C94AA960C946D78D1
:1001D0000C9440970C945A900C9451610C9478FFB5
:1001E0000D943A2B0C94E0980C940BB60C94687E0A
:1001F0000C945F960D94BE350C94AE4D0C94831602
:100200000C9405930C9434960C9461780C94FD979F
:100210000D947F060C9474A70C94E3980C9437A665
:100220000C94CBA00C944A970C94FCA50C94797D6B
:100230000C9465EA0C946A7A0D94C3020C94BE99EE
:100240000C9419990C94FFA70C9441930C94EB77A0
:100250000C94E5770C94DC160C9427410C945E54B6
:100260000C9445990C94B33F0C94622F0C947A38FB
:100270000C94BF140C9458E50C94C5980C94BC9243
:100280000C94D3400D9455280C949CDC0C94031EC4
:100290000C9499FF0C946A780C941AA80C94F79615
:1002A0000C9486960C9426910C9479EA0C9412483E
:1002B0000C947F120C9492160C9456960D94C527AC
:1002C0000C944E990C94D7980C94749E0C94F4A5AD
:1002D0000D941A060C94EB960C94DA770D94AB02FD
:1002E0000C94257E0C94C9A10D94BC040C94927FAF
:1002F0000C94C2DC0C949B960C942FDD0C941099FA
:100300000C9402960C9414A00C94C4FF0C944236E6
:100310000C94A9440C9459630C9427A10C943F9815
:100320000C940E980C94B1910C9455630C9469EA5A
:100330000C941BCF0C94CA2C0C94F14C0C9424E517
:100340000C946DA70C94A97D0C94B9950C94A79668
:100350000C9460990C94C8980C94CB980C941C9EA7
:100360000C9425970C946B3E0C943A150C947CB22B
:100370000C9492960C944C160C94A4960C94F377CF
:100380000C94F6770C9454180C9404990D94184519
:100390000C94B0DC0C946CFF0C9439930C9463EACD
:1003A0000C9451DE0C94ACDC0C949C260C941498A8
:1003B0000C94E27F0C94E57F0C944C370C94ED95F3
:1003C0000C941C970C944D960D947E2A0C9420A6A8
:1003D0000C945DDE0C94FEDC0C94F3950C943D972C
:1003E0000C9412A20C946E960D94DD020C947E99DE
:1003F0000C94DB7D0C94D0960C94415F0C949D770B
:100400000C94D4990C94B9980C946B7E0C94079826
:100410000D94E4050C94F8990D94E5470C946596B9
:100420000D94BA260C94BE930C9459970C94E2A0A8
:100430000C94A1FF0C94B63B0C94489F0C94B0BA5A
:100440000C94EC980C94A11B0C94A2DC0C9420E569
:100450000C94DE910C94E99D0C944B990C94F298B9
:100460000C9445930C9485FF0C94F8980C94C2FF5F
:100470000C94BA830C9440A60C9410970C94647856
:100480000C9498960C940C830C94A11E0C94817D72
:100490000C94E8960D9466480C947BEA0C941397A0
:1004A0000C94CC990C9445980C94FB980C9431992D
:1004B0000D94C7020C9493990C9467980C94E3B62E
:1004C0000C94A0980C94B6950C9439A20C9458A254
:1004D0000C942B620C947F3D0C94B0620C94369873
:1004E0000D945F060C94D4950D94D2050C943C9811
:1004F0000C94D67F0C9493820C94ECBC0C94707783
:100500000C946B960C94361E0C946B9A0C945DD5DF
:100510000C94ED510C9486930C9445960C9433985E
:100520000C945B1D0C9499630C940F960C9423A867
:100530000C947C920C9495960C9412960C94CA93FD
:100540000C947D960C94F4960C9436990C94CD7E74
:100550000C94B8990C942B350C94B6BF0C9427D3FB
:100560000C948CFF0C947BA70C94D4570C94BE373E
:100570000C94A73A0C943D930C9444B50C940AD275
:100580000C94F6950C94AA800C942DA00C94C3782E
:100590000C94C5960D945E2B0C947A790C94CA95A4
:1005A0000C948D7E0C94AD960C94AD7F0C941392AC
:1005B0000C9494B40C94F4970C9475990C94C7DC37
:1005C0000C9420980C94E2960C940FBC0C94B99661
:1005D0000C94C1990C9422E50C94D1DC0C943B153D
:1005E0000C94ADA10C94D0950C9439980D94E9021B
:1005F0000C94D2340C94C7990C940A990C9405610C
:100600000C945D990C94D4980D94332A0C94C4994D
:100610000C945CA70C94CE980C94C99E0C9472FF19
:100620000C9422970C9480920C9493FF0C949999BB
:100630000C9416990C9482910C94391D0C94F1979A
:100640000C9473B70C94A6DC0C9489220C9462DE93
:100650000C944E160C945C490C9427BF0C9428A65D
:100660000C9462970C942A980C942E970C94D67E36
:100670000C94B4A00C94FE980C94BAB50C94BADC0B
:100680000C9428970C94AA770C94D1980C94FD960E
:100690000C9489770C9484990C944D140C94F6A7BF
:1006A0000D946F060C94AFFF0C94BCA50C9481992B
:1006B0000C94449A0C94BF980C9490990C94B89212
:1006C0000C9447920C9416970C942B290C94CC14F0
:1006D0000C944CE50C9417980C94B3A70C94A29925
:1006E0000C94C0920C94BC950C9447B10C94009857
:1006F0000C9437330C94A4CF0C945ADE0D94DB0287
:100700000C94F4150C94E2A10C948F960C941B9607
:100710000C94C8DC0D94BF020C943A970C9477EAC1
:100720000D9437440C948FA00C94E1950C9493E5B0
:100730000C940C960C9487DC0C94E9FF0C94B33168
:100740000C94B09E0C94CDFF0C94C8600C94F09562
:100750000C94DBFF0C94BBFF0C949BFF0C9448960D
:100760000C9410A10C94F7970C94CAB90C9455DE14
:100770000C942D620C94D97F0C94DC7F0C941D7822
:100780000C944D160C9491980C9458790C94B99D36
:100790000C9467EA0C941A610C94E2900C947EFF1E
:1007A0000C949A170C9452A60C94C4460C94B696CA
:1007B0000C94F3150D94D3020C948BA20D94240485
:1007C0000C9452770C948A160C9439170C9471DDA2
:1007D0000C94F5B70C946F990C94D0DC0C94169093
:1007E0000C94A9FF0C94F5920C9494A10C94829310
:1007F0000C9499DC0C94BC960D948A250C9453634C
:100800000C9496A20C946DEA0C948DDC0C948A984E
:100810000C9477190C943C150C94B5A50C9476A007
:100820000C947F140C94DB950C94BF950C942C962F
:100830000C9437970C94F9950C94FA960C94AB9809
:100840000C94B2990D94AF020C9457990C94D35018
:100850000C9421DD0C9466990C9484160C94394701
:100860000C94053B0C944DA20C947A190C945DEAFF
:100870000C942CA20D943B470C9413990C944B169A
:100880000C9494610C94DD980C9477BD0C943CBB53
:100890000C94BF7F0D94F5020C94D4780C940799B6
:1008A0000C94A1830D94CF2B0D94F0030C940DE5C3
:1008B0000C94B5990C945A990D94C2480C94AE9826
:1008C0000D94812B0C94BF960C9408A80C94D89589
:1008D0000C944D970C9453970C948C150C945F9733
:1008E0000C94BB990C94B67F0C9428D40C94BD77CF
:1008F0000C9448BC0C941F990C94A9780C9487997B
:100900000D94B3020C9425990C94A47F0C941F971A
:100910000C94CD960D94CB020C949C990C94DA8295
:100920000C9447240C942B990C941FA20C9456976A
:100930000C9474960C94D07F0C942E990C941A9865
:100940000C94112C0C9464A60D9470460C94F9929E
:100950000C9463990C945F7E0D94BB020C94CD951E
:100960000C9453960C9484920C9426B00C94729927
:100970000D94ED020C940FDA0C9432610C94F51C7A
:100980000C94C2960C9444E50D94E5020C945877AF
:100990000C940DDD0C94DA980C9437470C946C99F8
:1009A0000C9430980C94CBFF0C94DFCE0C949B7F6E
:1009B0000C94A0800C9408D10C9436390C944C14EF
:1009C0000C9463A20C94A3FF0C94E7A70C94063A32
:1009D0000C9430620C9425960C9475EA0C94429910
:1009E0000D94F1020C94E6980C9401990C94006318
:1009F0000C941F7F0C94E4950C94CB960C94799AEC
:100A00000C94CCDC0C9482C00C94D03E0C941997BE
:100A10000C94287F0C9461EA0C94C8270C9458809D
:100A20000C943EA10D94432C0D94D7020C94AA363D
:100A30000C94CCA50C94FC950C942B970D94580415
:100A40000C94A1960C94B3630C94A7450C945BD6BC
:100A50000C94B3980C948BA70C94BBA70C9418E53A
:100A60000C94D21D0D94E1020D940A040C94EE96A0
:100A70000C944D9E0C948E5E0C9461A70C945CDEDD
:100A80000C9423980D94CF010C947A960C9422D058
:100A90000C9403980C94FF950C94A4A50C940E94BC
:100AA0000C94E9980C941AE50C946BEA0C94C2939C
:100AB0000C94EA950C94C8960D94B7020C94B5FF6B
:100AC0000C94BEDC0C9448990C9471EA0C94B0968A
:100AD0000C9490CE0C9457630C94F0770C94789906
:100AE0000C945C970C94213C0C9465E50C94DF7F8E
:100AF0000C943B960C9494780C94DA940C94BC98D7
:100B00000C9499980C94F8810C94112E0C94FB1F62
:100B10000C94E7950C947AE50C94D6960C946E9A06
:100B20000C941CE50C9450970C9471960C9495DCE5
:100B30000C9428990C9424BA0C9480960C94987E6A
:100B40000C9433810C94A8990C944E7D0C94304DE8
:100B50000C9467970C94F2150C9447970C94449757
:100B60000D94F9020C948C960C940B980C94B396FB
:100B70000C942A440C9496990C9400970C94D4FFEE
:100B80000C9480A20C94033B0C94DC960C94C877D4
:100B90000C947B990C943C990C943F990C94E877B5
:100BA0000C9468B80C9439990C94057E0C94779643
:100BB0000D94C2050C9409180D94B0010C94053DD8
:100BC0000C941A400C9454990C941E950C94A5996D
:100BD0000C9433990C94FA970C9489160C945B63DB
:100BE0000C9493420D94CC030C9435610C94C693F1
:100BF0000C940D990C943D150C9491DC0C947F7F12
:100C00000C94DF960C949F990C94E19E0C945BA637
:100C10000C9467780C94A9180C9462620C94719AE5
:100C20000D94CF020C947E930C94CA430C949E9026
:100C30000C9451990C942D980C94044F0C94429858
:100C40000C94DFA70C94AF990C941A1A0C94D6A1AB
:100C50000C949EA50C9449A60D94E2240C94D9966C
:100C60000C948C7D0C94717E0C94FE7D0C940193FD
:100C70000C94FD920C948D990C9455910C945E807B
:100C80000C9486E50C940BDE0C940A970C9450633C
:100C90000C94617E0D9480450C945FEA0C94D28F85
:100CA0000C94B4DC0C9422990C94E2FF0C9423B2C3
:100CB000526573657420636F6E74726F6C20697314
:100CC0002063757272656E746C79206469736162F9
:100CD0006C65642E00436F6D6D732068616C746584
:100CE000642E204E65787420627974652077696C73
:100CF0006C20726573657420746865204172647538
:100D0000696E6F2E0000537065656475696E6F20A3
:100D1000323032342E30352D64657600737065655F
:100D20006475696E6F203230323430352D646576EB
:100D300000000030303200FF0A50616765206861B2
:100D400073206E6F74206265656E20696D706C65CE
:100D50006D656E74656420796574000A426F6F7307
:100D600074206C6F6F6B7570207461626C65000A23
:100D7000326E642049676E6974696F6E204D6170D0
:100D8000000A326E64204675656C204D6170000A61
:100D900050616765203920436667000A5472696DA7
:100DA0002031205461626C65000A565654204D6112
:100DB00070000A426F6F7374204D6170000A5067B3
:100DC000203620436F6E666967000A414652204D07
:100DD0006170000A5067203420436667000A496743
:100DE0006E6974696F6E204D6170000A5067203221
:100DF00020436667000A5645204D6170000A3D3D5C
:100E00003D436F6D6D616E642048656C703D3D3D86
:100E10000A0A416C6C20636F6D6D616E64732061B2
:100E200072652073696E676C6520636861726163C7
:100E300074657220616E642061726520636F6E63F9
:100E40006174656E61746564207769746820746884
:100E500065697220706172616D6574657273200AD4
:100E6000776974686F7574207370616365732E534E
:100E7000796E7461783A20203C636F6D6D616E64A9
:100E80003E2B3C706172616D65746572313E2B3C26
:100E9000706172616D65746572323E2B3C70617277
:100EA000616D657465724E3E0A0A3D3D3D4C697345
:100EB00074206F6620436F6D6D616E64733D3D3DC0
:100EC0000A0A41202D20446973706C6179732033C4
:100ED00031206279746573206F6620637572726564
:100EE0006E745374617475732076616C75657320CC
:100EF000696E2062696E61727920286C697665205E
:100F000064617461290A42202D204275726E20634B
:100F1000757272656E74206D617020616E642063FD
:100F20006F6E666967506167652076616C75657381
:100F300020746F20656570726F6D0A43202D2054F8
:100F400065737420434F4D20706F72742E202055AE
:100F50007365642062792054756E6572737475646C
:100F6000696F20746F2073656520776865746865A4
:100F70007220616E20454355206973206F6E206199
:100F800020676976656E2073657269616C200A203E
:100F9000202020706F72742E2052657475726E73EB
:100FA00020612062696E617279206E756D62657272
:100FB0002E0A4E202D205072696E74206E657720A7
:100FC0006C696E652E0A50202D2053657420637560
:100FD0007272656E7420706167652E202053796E81
:100FE0007461783A2020502B3C706167654E756DB6
:100FF0006265723E0A52202D2053616D6520617337
:10100000204120636F6D6D616E640A53202D204472
:101010006973706C6179207369676E61747572654C
:10102000206E756D6265720A51202D2053616D65C9
:10103000206173205320636F6D6D616E640A5620CA
:101040002D20446973706C6179206D6170206F721E
:1010500020636F6E666967506167652076616C75A5
:10106000657320696E2062696E6172790A57202D5E
:1010700020536574206F6E65206279746520696EF7
:10108000206D6170206F7220636F6E6669675061BA
:1010900067652E2020457870656374732062696EE1
:1010A00061727920706172616D65746572732E2052
:1010B0000A2020202053796E7461783A2020572B23
:1010C0003C6F66667365743E2B3C6E65776279741F
:1010D000653E0A74202D205365742063616C69623B
:1010E000726174696F6E2076616C7565732E202055
:1010F000457870656374732062696E6172792070DF
:101100006172616D65746572732E20205461626C2A
:101110006520696E64657820697320656974686507
:101120007220302C200A20202020312C206F7220A9
:10113000322E202053796E7461783A2020742B3C33
:1011400074626C655F6964783E2B3C6E65775661AE
:101150006C7565313E2B3C6E657756616C756532FA
:101160003E2B3C6E657756616C75654E3E0A5A2083
:101170002D20446973706C61792063616C696272BF
:101180006174696F6E2076616C7565730A54202DE9
:1011900020446973706C6179732032353620746F26
:1011A0006F7468206C6F6720656E74726965732058
:1011B000696E2062696E6172790A72202D2044691D
:1011C00073706C6179732032353620746F6F746878
:1011D000206C6F6720656E74726965730A55202DE7
:1011E000205072657061726520666F722066697248
:1011F0006D77617265207570646174652E20546826
:1012000065206E6578742062797465207265636507
:10121000697665642077696C6C20636175736520FD
:101220007468652041726475696E6F20746F2072F6
:10123000657365742E0A3F202D20446973706C61BC
:10124000797320746869732068656C7020706167B9
:1012500065002C2000575545004F3200496E6C65E3
:10126000742074656D7000436F6F6C616E74005212
:101270006573657420636F6E74726F6C2069732080
:1012800063757272656E746C792064697361626CE7
:1012900065642E00436F6D6D732068616C746564C6
:1012A0002E204E65787420627974652077696C6CA5
:1012B0002072657365742074686520417264756975
:1012C0006E6F2E004552523B20496E636F727265FD
:1012D000637420454550524F4D2073697A65003044
:1012E000303200200020002000200020202020009C
:1012F000537065656475696E6F20323032342E30FC
:10130000352D64657600737065656475696E6F2050
:101310003230323430352D64657600537065656443
:1013200075696E6F2063737830323031392E380032
:101330000000800020012001800020018000F000DA
:101340008001C000C0002001C00080002001000119
:10135000040E11161A1C212A2C2E30323436383A3B
:101360003C3E40424446484C4E505256585A5D5FAF
:1013700063686F797D00000000963007772C610E5E
:10138000EEBA51099919C46D078FF46A7035A563D7
:10139000E9A395649E3288DB0EA4B8DC791EE9D5FA
:1013A000E088D9D2972B4CB609BD7CB17E072DB809
:1013B000E7911DBF906410B71DF220B06A4871B963
:1013C000F3DE41BE847DD4DA1AEBE4DD6D51B5D491
:1013D000F4C785D38356986C13C0A86B647AF962FE
:1013E000FDECC9658A4F5C0114D96C0663633D0F3F
:1013F000FAF50D088DC8206E3B5E10694CE4416023
:10140000D5727167A2D1E4033C47D4044BFD850D2E
:10141000D26BB50AA5FAA8B5356C98B242D6C9BB4D
:10142000DB40F9BCACE36CD832755CDF45CF0DD640
:10143000DC593DD1ABAC30D9263A00DE518051D7D2
:10144000C81661D0BFB5F4B42123C4B3569995BA78
:10145000CF0FA5BDB89EB802280888055FB2D90C89
:10146000C624E90BB1877C6F2F114C6858AB1D6106
:10147000C13D2D66B69041DC760671DB01BC20D201
:10148000982A10D5EF8985B1711FB5B606A5E4BFBE
:101490009F33D4B8E8A2C9077834F9000F8EA809A1
:1014A0009618980EE1BB0D6A7F2D3D6D08976C6410
:1014B00091015C63E6F4516B6B62616C1CD8306522
:1014C000854E0062F2ED95066C7BA5011BC1F40808
:1014D0008257C40FF5C6D9B06550E9B712EAB8BE55
:1014E0008B7C88B9FCDF1DDD62492DDA15F37CD3D6
:1014F0008C654CD4FB5861B24DCE51B53A7400BCEA
:10150000A3E230BBD441A5DF4AD795D83D6DC4D105
:10151000A4FBF4D6D36AE96943FCD96E34468867E4
:10152000ADD0B860DA732D0444E51D03335F4C0A77
:10153000AAC97C0DDD3C710550AA41022710100B91
:10154000BE86200CC925B56857B3856F2009D466BF
:10155000B99FE461CE0EF9DE5E98C9D9292298D0F0
:10156000B0B4A8D7C7173DB359810DB42E3B5CBDAD
:10157000B7AD6CBAC02083B8EDB6B3BF9A0CE2B673
:10158000039AD2B1743947D5EAAF77D29D1526DBDD
:10159000048316DC73120B63E3843B64943E6A6D30
:1015A0000DA85A6A7A0BCF0EE49DFF099327AE006F
:1015B0000AB19E077D44930FF0D2A3088768F20119
:1015C0001EFEC206695D5762F7CB67658071366C97
:1015D00019E7066B6E761BD4FEE02BD3895A7ADAB4
:1015E00010CC4ADD676FDFB9F9F9EFBE8E43BEB7A5
:1015F00017D58EB060E8A3D6D67E93D1A1C4C2D849
:101600003852F2DF4FF167BBD16757BCA6DD06B594
:101610003F4B36B248DA2B0DD84C1B0AAFF64A03C3
:1016200036607A0441C3EF60DF55DF67A8EF8E6E46
:101630003179BE69468CB361CB1A8366BCA0D26F88
:101640002536E2685295770CCC03470BBBB91602DE
:10165000222F260555BE3BBAC5280BBDB2925AB4FF
:101660002B046AB35CA7FFD7C231CFD0B58B9ED90C
:101670002C1DAEDE5BB0C2649B26F263EC9CA36AB9
:10168000750A936D02A906099C3F360EEB85670724
:101690007213570005824ABF95147AB8E2AE2BB197
:1016A0007B381BB60C9B8ED2920DBED5E5B7EFDC16
:1016B0007C21DFDB0BD4D2D38642E2D4F1F8B3DD58
:1016C000686E83DA1FCD16BE815B26B9F6E177B06E
:1016D0006F7747B718E65A0888706A0FFFCA3B064B
:1016E000665C0B0111FF9E658F69AE62F8D3FF6BDC
:1016F0006145CF6C1678E20AA0EED20DD754830470
:101700004EC2B30339612667A7F71660D04D47690B
:1017100049DB776E3E4A6AD1AEDC5AD6D9660BDF1A
:1017200040F03BD83753AEBCA9C59EBBDE7FCFB2DD
:1017300047E9FFB5301CF2BDBD8AC2BACA3093B3C7
:1017400053A6A3B4240536D0BA9306D7CD2957DEC5
:1017500054BF67D9232E7A66B3B84A61C4021B68A6
:101760005D942B6F2A37BE0BB4A18E0CC31BDF0513
:101770005A8DEF022D0000000041311B19826236A4
:1017800032C3532D2B04C56C6445F4777D86A75A6C
:1017900056C796414F088AD9C849BBC2D18AE8EFDB
:1017A000FACBD9F4E30C4FB5AC4D7EAEB58E2D839C
:1017B0009ECF1C98875112C24A1023D953D370F47C
:1017C000789241EF6155D7AE2E14E6B537D7B5986C
:1017D0001C9684830559981B8218A9009BDBFA2D5F
:1017E000B09ACB36A95D5D77E61C6C6CFFDF3F419C
:1017F000D49E0E5ACDA2248495E3159F8C2046B228
:10180000A76177A9BEA6E1E8F1E7D0F3E82483DE7B
:10181000C365B2C5DAAAAE5D5DEB9F464428CC6BCA
:101820006F69FD7076AE6B3139EF5A2A202C0907AB
:101830000B6D381C12F33646DFB2075DC67154706B
:10184000ED30656BF4F7F32ABBB6C231A275911C7B
:101850008934A00790FBBC9F17BA8D840E79DEA94E
:101860002538EFB23CFF79F373BE48E86A7D1BC5AB
:10187000413C2ADE58054F79F0447E62E9872D4FBE
:10188000C2C61C54DB018A159440BB0E8D83E8232D
:10189000A6C2D938BF0DC5A0384CF4BB218FA7967E
:1018A0000ACE968D130900CC5C4831D7458B62FA7D
:1018B0006ECA53E177545DBBBA156CA0A3D63F8DB9
:1018C00088970E96915098D7DE11A9CCC7D2FAE12D
:1018D000EC93CBFAF55CD762721DE6796BDEB554FA
:1018E000409F844F5958120E161923150FDA70387D
:1018F000249B41233DA76BFD65E65AE67C2509CB79
:10190000576438D04EA3AE9101E29F8A1821CCA72C
:101910003360FDBC2AAFE124ADEED03FB42D83127D
:101920009F6CB20986AB2448C9EA1553D029467E7C
:10193000FB687765E2F6793F2FB7482436741B09B8
:101940001D352A1204F2BC534BB38D485270DE652C
:101950007931EF7E60FEF3E6E7BFC2FDFE7C91D0F9
:10196000D53DA0CBCCFA368A83BB07919A7854BC7C
:10197000B13965A7A84B98833B0AA99822C9FAB543
:101980000988CBAE104F5DEF5F0E6CF446CD3FD9AA
:101990006D8C0EC27443125AF3022341EAC1706C7B
:1019A000C1804177D847D7369706E62D8EC5B5005A
:1019B000A584841BBC1A8A41715BBB5A6898E8777E
:1019C00043D9D96C5A1E4F2D155F7E360C9C2D1BAA
:1019D00027DD1C003E120098B9533183A09062AEFF
:1019E0008BD153B59216C5F4DD57F4EFC494A7C25A
:1019F000EFD596D9F6E9BC07AEA88D1CB76BDE31E2
:101A00009C2AEF2A85ED796BCAAC4870D36F1B5DB9
:101A1000F82E2A46E1E136DE66A007C57F6354E86A
:101A2000542265F34DE5F3B202A4C2A91B67918469
:101A30003026A09F29B8AEC5E4F99FDEFD3ACCF36D
:101A4000D67BFDE8CFBC6BA980FD5AB2993E099FB9
:101A5000B27F3884ABB0241C2CF115073532462AEE
:101A60001E73773107B4E17048F5D06B5136834669
:101A70007A77B25D634ED7FACB0FE6E1D2CCB5CC24
:101A8000F98D84D7E04A1296AF0B238DB6C870A0AB
:101A90009D8941BB84465D2303076C381AC43F15FA
:101AA00031850E0E2842984F6703A9547EC0FA79FB
:101AB0005581CB624C1FC538815EF423989DA70EDB
:101AC000B3DC9615AA1B0054E55A314FFC996262AB
:101AD000D7D85379CE174FE149567EFA50952DD776
:101AE0007BD41CCC62138A8D2D52BB963491E8BBFB
:101AF0001FD0D9A006ECF37E5EADC265476E91485B
:101B00006C2FA05375E836123AA90709236A5424AA
:101B1000082B653F11E479A796A548BC8F661B91F9
:101B2000A4272A8ABDE0BCCBF2A18DD0EB62DEFDFA
:101B3000C023EFE6D9BDE1BC14FCD0A70D3F838ADA
:101B4000267EB2913FB924D070F815CB693B46E6AA
:101B5000427A77FD5BB56B65DCF45A7EC537095375
:101B6000EE763848F7B1AE09B8F09F12A133CC3FFA
:101B70008A72FD249300000000376AC2016ED4848B
:101B80000359BE4602DCA80907EBC2CB06B27C8D26
:101B90000485164F05B851130E8F3BD10FD685978C
:101BA0000DE1EF550C64F91A095393D8080A2D9EDC
:101BB0000A3D475C0B70A3261C47C9E41D1E77A293
:101BC0001F291D601EAC0B2F1B9B61ED1AC2DFABE2
:101BD00018F5B56919C8F23512FF98F713A626B1A2
:101BE00011914C7310145A3C152330FE147A8EB8A0
:101BF000164DE47A17E0464D38D72C8F398E92C9AE
:101C00003BB9F80B3A3CEE443F0B84863E523AC057
:101C10003C6550023D58175E366F7D9C3736C3DAFF
:101C20003501A9183484BF5731B3D59530EA6BD349
:101C300032DD01113390E56B24A78FA925FE31EF2A
:101C400027C95B2D264C4D62237B27A0222299E6D3
:101C50002015F3242128B4782A1FDEBA2B4660FC15
:101C600029710A3E28F41C712DC376B32C9AC8F54D
:101C70002EADA2372FC08D9A70F7E75871AE591E5E
:101C8000739933DC721C2593772B4F517672F117C1
:101C900074459BD57578DC897E4FB64B7F16080D51
:101CA0007D2162CF7CA4748079931E4278CAA004FF
:101CB0007AFDCAC67BB02EBC6C87447E6DDEFA38D6
:101CC0006FE990FA6E6C86B56B5BEC776A02523105
:101CD000683538F369087FAF623F156D6366AB2BDB
:101CE0006151C1E960D4D7A665E3BD6464BA03223B
:101CF000668D69E06720CBD74817A115494E1F5361
:101D00004B7975914AFC63DE4FCB091C4E92B75A52
:101D10004CA5DD984D989AC446AFF00647F64E4064
:101D200045C12482444432CD4173580F402AE649CC
:101D3000421D8C8B435068F154670233553EBC758D
:101D40005709D6B7568CC0F853BBAA3A52E2147C56
:101D500050D57EBE51E839E25ADF53205B86ED66EE
:101D600059B187A4583491EB5D03FB295C5A456F48
:101D70005E6D2FAD5F801B35E1B771F7E0EECFB13F
:101D8000E2D9A573E35CB33CE66BD9FEE73267B8F2
:101D9000E5050D7AE4384A26EF0F20E4EE569EA2C0
:101DA000EC61F460EDE4E22FE8D388EDE98A36AB2C
:101DB000EBBD5C69EAF0B813FDC7D2D1FC9E6C970D
:101DC000FEA90655FF2C101AFA1B7AD8FB42C49EB6
:101DD000F975AE5CF848E900F37F83C2F2263D84D2
:101DE000F0115746F1944109F4A32BCBF5FA958DE8
:101DF000F7CDFF4FF6605D78D95737BAD80E89FC1A
:101E0000DA39E33EDBBCF571DE8B9FB3DFD221F51F
:101E1000DDE54B37DCD80C6BD7EF66A9D6B6D8EF2B
:101E2000D481B22DD504A462D033CEA0D16A70E69D
:101E3000D35D1A24D210FE5EC527949CC47E2ADA94
:101E4000C6494018C7CC5657C2FB3C95C3A282D3A3
:101E5000C195E811C0A8AF4DCB9FC58FCAC67BC93D
:101E6000C8F1110BC9740744CC436D86CD1AD3C099
:101E7000CF2DB902CE4096AF9177FC6D902E422BBC
:101E8000921928E9939C3EA696AB546497F2EA22F5
:101E900095C580E094F8C7BC9FCFAD7E9E96133861
:101EA0009CA179FA9D246FB598130577994ABB31A7
:101EB0009B7DD1F39A3035898D075F4B8C5EE10DA8
:101EC0008E698BCF8FEC9D808ADBF7428B82490431
:101ED00089B523C68888649A83BF0E5882E6B01EEF
:101EE00080D1DADC8154CC938463A651853A1817EB
:101EF000870D72D586A0D0E2A997BA20A8CE046635
:101F0000AAF96EA4AB7C78EBAE4B1229AF12AC6F82
:101F1000AD25C6ADAC1881F1A72FEB33A67655756C
:101F2000A4413FB7A5C429F8A0F3433AA1AAFD7C78
:101F3000A39D97BEA2D073C4B5E71906B4BEA7404F
:101F4000B689CD82B70CDBCDB23BB10FB3620F497E
:101F5000B155658BB06822D7BB5F4815BA06F653FA
:101F6000B8319C91B9B48ADEBC83E01CBDDA5E5AFC
:101F7000BFED3498BE000000006567BCB88BC8098F
:101F8000AAEEAFB5125797628F32F0DE37DC5F6B87
:101F900025B938D79DEF28B4C58A4F087D64E0BDC8
:101FA0006F018701D7B8BFD64ADDD86AF23377DF31
:101FB000E0561063589F571950FA30A5E8149F1047
:101FC000FA71F8AC42C8C07BDFADA7C7674308729F
:101FD00075266FCECD707FAD951518112DFBB7A46A
:101FE0003F9ED0188727E8CF1A428F73A2AC20C635
:101FF000B0C9477A083EAF32A05BC88E18B5673BC0
:102000000AD00087B26938502F0C5FEC97E2F05984
:10201000858797E53DD1878665B4E03ADD5A4F8FD5
:10202000CF3F2833778610E4EAE37758520DD8ED96
:102030004068BF51F8A1F82BF0C49F97482A30227E
:102040005A4F579EE2F66F497F9308F5C77DA74028
:10205000D518C0FC6D4ED09F352BB7238DC5189673
:102060009FA07F2A271947FDBA7C204102928FF456
:1020700010F7E848A83D58149B583FA823B6901D78
:1020800031D3F7A1896ACF76140FA8CAACE1077FD4
:10209000BE8460C306D270A05EB7171CE659B8A90B
:1020A000F43CDF154C85E7C2D1E0807E690E2FCB72
:1020B0007B6B4877C3A20F0DCBC768B17329C704E8
:1020C000614CA0B8D9F5986F4490FFD3FC7E506660
:1020D000EE1B37DA564D27B90E284005B6C6EFB0CD
:1020E000A4A3880C1C1AB0DB817FD767399178D202
:1020F0002BF41F6E9303F7263B66909A83883F2F3D
:1021000091ED589329546044B43107F80CDFA84D81
:102110001EBACFF1A6ECDF92FE89B82E4667179B58
:1021200054027027ECBB48F071DE2F4CC93080F9A7
:10213000DB55E745639CA03F6BF9C783D31768362F
:10214000C1720F8A79CB375DE4AE50E15C40FF5439
:102150004E2598E8F673888BAE16EF3716F8408256
:10216000049D273EBC241FE92141785599AFD7E053
:102170008BCAB05C333BB659ED5ED1E555B07E50AD
:1021800047D519ECFF6C213B62094687DAE7E93253
:10219000C8828E8E70D49EED28B1F951905F56E4BE
:1021A000823A31583A83098FA7E66E331F08C186F9
:1021B0000D6DA63AB5A4E140BDC186FC052F2949A5
:1021C000174A4EF5AFF376223296119E8A78BE2BCF
:1021D000981DD997204BC9F4782EAE48C0C001FD98
:1021E000D2A566416A1C5E96F779392A4F97969F69
:1021F0005DF2F123E505196B4D607ED7F58ED16256
:10220000E7EBB6DE5F528E09C237E9B57AD94600F0
:1022100068BC21BCD0EA31DF888F56633061F9D6C3
:1022200022049E6A9ABDA6BD07D8C101BF366EB40E
:10223000AD530908159A4E721DFF29CEA511867B54
:10224000B774E1C70FCDD91092A8BEAC2A461119B8
:10225000382376A5807566C6D810017A60FEAECFA9
:10226000729BC973CA22F1A457479618EFA939ADDA
:10227000FDCC5E114506EE4D766389F1CE8D264488
:10228000DCE841F86451792FF9341E9341DAB12624
:1022900053BFD69AEBE9C6F9B38CA1450B620EF099
:1022A0001907694CA1BE519B3CDB362784359992B6
:1022B0009650FE2E2E99B95426FCDEE89E12715DD2
:1022C0008C7716E134CE2E36A9AB498A1145E63F0C
:1022D00003208183BB7691E0E313F65C5BFD59E953
:1022E00049983E55F12106826C44613ED4AACE8BBA
:1022F000C6CFA9377E38417FD65D26C36EB38976B7
:102300007CD6EECAC46FD61D590AB1A1E1E41E14F1
:10231000F38179A84BD769CB13B20E77AB5CA1C21E
:10232000B939C67E0180FEA99CE59915240B36A01B
:10233000366E511C8EA7166686C271DA3E2CDE6F91
:102340002C49B9D394F081040995E6B8B17B490DC5
:10235000A31E2EB11B483ED2432D596EFBC3F6DBA4
:10236000E9A69167511FA9B0CC7ACE0C749461B9DB
:1023700066F10605DE00002100240027002A002D5A
:10238000003000330001010000040107010A0100D0
:10239000002200250028002B002E0031003400020E
:1023A000010000050108010B0100002000230026A8
:1023B0000029002C002F003200000100000301065C
:1023C00001090105050505070508080808020202BC
:1023D000020A0A08080404040401010101010101C0
:1023E000010303030303030303040707070C0C0C97
:1023F0000C0C0C0C0C02020202060606060606066F
:10240000060B0B0B0B0B0B0B0B010210202008080B
:102410001020401020408002010201080402010146
:10242000020408102040808040201008040201802F
:102430000402018040201008040201080402010186
:10244000020408102040800102040810204080008F
:10245000000A0B02090C0D0E08070304010000001E
:10246000000000000000000000000000000000006C
:102470000000000000000000000000121110000029
:10248000000000000000000000000000000000004C
:10249000000000000000FA0011241FBECFEFD1E2BF
:1024A000DEBFCDBF00E00CBF12E0A0E0B2E0EEE185
:1024B000F9E902E00BBF02C007900D92A638B10700
:1024C000D9F720E2A6E8B2E001C01D92A830B20719
:1024D000E1F712E1CCE4D2E100E006C02197010966
:1024E000802FFE010F94634CCB34D10780E00807A6
:1024F000A9F70F9471390D948D4C0C9400008F92B4
:102500009F92AF92BF92CF92DF92EF92FF920F9382
:102510001F93CF93DF9300D000D000D01F92CDB790
:10252000DEB7E091AF1BEC71EC3031F48091A81B69
:1025300024E230E081FF02C030E020E00091A31BE4
:102540001091A41B8091C1079091C207801B910B31
:102550006AE070E00F948D4B615071092C5D3F4F24
:10256000261737070CF4ECC07C836B838B819C812E
:102570001816190624F0820F931F9C838B838B817E
:102580009C812817390714F43C832B838091BF0763
:102590009091C007801B910B6AE070E00F948D4B07
:1025A00061507109261737070CF4CDC07E836D8307
:1025B0008D819E811816190624F0820F931F9E8329
:1025C0008D838D819E812817390714F43E832D83D6
:1025D0008091BD079091BE07801B910B6AE070E06F
:1025E0000F948D4B61507109261737070CF4AEC05C
:1025F00078876F838F8198851816190624F0820FCB
:10260000931F98878F838F8198852817390714F433
:1026100038872F838091BB079091BC07801B910B5B
:102620006AE070E00F948D4B6150710926173707EF
:102630000CF48FC07A87698789859A8518161906E0
:1026400024F0820F931F9A87898789859A85281796
:10265000390714F43A8729872091A7053091A805F6
:102660004091A9055091AA05BE01675F7F4FEC30EC
:1026700009F072C0A091AB05B091AC050091AD0519
:102680001091AE05490184E2880E911C5A0184E242
:10269000A80EB11C7D0184E2E80EF11C680184E201
:1026A000C80ED11CFE013196828193818217930757
:1026B000A9F08417950791F08A179B0779F0801786
:1026C000910761F08815990549F08A159B0531F04D
:1026D0008E159F0519F08C159D0519F401979383AC
:1026E000828332966E177F07F9F68B819C819093D7
:1026F0007D0580937C058D819E8190937B058093E1
:102700007A058F81988590937905809378058985DE
:102710009A8590936B0580936A052A960FB6F89474
:10272000DEBF0FBECDBFDF91CF911F910F91FF9004
:10273000EF90DF90CF90BF90AF909F908F900895D3
:10274000621B730B11CF621B730B30CF621B730BB9
:102750004FCF621B730B6ECFFE0131968281938146
:102760008217930719F08417950719F4019793833B
:10277000828332966E177F0789F7B7CF8091E7057E
:102780009091E805439760F181E090E09093E8052F
:102790008093E70580919D0590919E05A0919F05EE
:1027A000B091A0058093990590939A05A0939B05FD
:1027B000B0939C0580916C0590916D05A0916E057C
:1027C000B0916F0580939D0590939E05A0939F0502
:1027D000B093A0058091980591E089278093980592
:1027E0008091AF1B8C718C3031F080914B0C8073D9
:1027F000803309F03FC08091D11F9091D21F892B67
:1028000001F58091A81B81FD1CC080911C1D80FFDB
:102810002BC080911C1D80FF36C080918E1D909131
:102820008F1DA091901DB091911D0196A11DB11D0C
:1028300080938E1D90938F1DA093901DB093911D3A
:10284000089580911C1D816080931C1D8091BC1D8A
:102850008F7E8093BC1D8091AB1B8F77D1F6109239
:10286000D21F1092D11FD5CF8091BC1D8061809363
:10287000BC1DCFCF80911C1D816080931C1D809159
:10288000BC1D8F7EF4CF10928E1D10928F1D109262
:10289000901D1092911D089508958091531D8930C7
:1028A000CCF481E090E090937D0580937C0585E0F9
:1028B00090E090937B0580937A0589E090E0909377
:1028C0007905809378058DE090E090936B05809377
:1028D0006A05089580E190E090937D0580937C05E2
:1028E00084E090E090937B0580937A0588E090E007
:1028F00090937905809378058CE090E0E6CFE091A5
:102900008505F0918605808190918405892381F069
:1029100080911C1D80FD13C08DE090E09093E80530
:102920008093E70580911C1D816080931C1D089594
:1029300080911C1D80FD15C085E090E0EFCF809157
:10294000E7059091E8050D9759F08091CB1D8F5FB9
:102950008093CB1D8DE090E09093E8058093E70590
:1029600008958091E7059091E8050597C9F3809156
:10297000CB1D8F5F8093CB1D85E090E0EDCF8AE08B
:1029800090E090937D0580937C058CE190E090939E
:102990007B0580937A0508958091490C807F80346F
:1029A00021F58091531D8A306CF484E290E090937D
:1029B0007D0580937C0580E190E090937B0580937A
:1029C0007A05089584311CF483E290E0F0CF8E31D3
:1029D0001CF482E290E0EBCF8FE190E090937D05D4
:1029E00080937C058DE090E0E8CF803609F041C00F
:1029F0008091531D24E230E08A3024F08431ACF41D
:102A000023E230E030937D0520937C0529E030E01F
:102A100030937B0520937A058A3004F587E190E0B6
:102A20009093790580937805089522E230E08E3105
:102A300034F02FE130E0883214F421E230E03093BA
:102A40007D0520937C0526E030E030937B052093C4
:102A50007A058E3134F485E190E0E2CF86E190E0B2
:102A6000DFCF88321CF484E190E0DACF83E190E09C
:102A7000D7CF08950895089508959091531D80919A
:102A8000AF1B8C718C3081F59A30CCF08CE090E0EB
:102A900090937D0580937C0583E090E090937B0587
:102AA00080937A0586E090E090937905809378058D
:102AB00089E090E090936B0580936A05089581E02A
:102AC00090E090937D0580937C0584E090E0909366
:102AD0007B0580937A0587E090E090937905809359
:102AE00078058AE090E0E6CF9A306CF086E090E0DE
:102AF00090937D0580937C0583E090E090937B0527
:102B000080937A05089581E090E090937D0580930D
:102B10007C0584E090E0F2CF8091C1079091C207DC
:102B20002091A31B3091A41BAC01445051092417E0
:102B300035070CF04BC0821B930B97FD01969595C2
:102B40008795049790937D0580937C058091BF07BE
:102B50009091C007AC014450510924173507CCF5BA
:102B6000821B930B97FD01969595879504979093FB
:102B70007B0580937A058091BD079091BE07AC01DB
:102B800044505109241735073CF5821B930B97FDE0
:102B9000019695958795049790937905809378058C
:102BA0008091BB079091BC07AC0144505109241798
:102BB0003507ACF4821B930B97FD0196959587958D
:102BC000049790936B0580936A05089580539D4FF9
:102BD000B2CF80539D4FC4CF80539D4FD6CF8053EB
:102BE0009D4FE8CF089508958091531D9091AF1B9C
:102BF0009C719C3091F58A30CCF088E090E0909305
:102C00007D0580937C0582E090E090937B05809326
:102C10007A0584E090E0909379058093780586E0CA
:102C200090E090936B0580936A0508951816ECF771
:102C300081E090E090937D0580937C0583E090E0B7
:102C400090937B0580937A0585E090E090937905D9
:102C50008093780587E090E0E4CF8A308CF024E020
:102C600030E030937D0520937C0582E090E09093E6
:102C70007B0580937A053093790520937805D1CF31
:102C800018169CF621E030E030937D0520937C05FA
:102C900083E090E0ECCF08950895089580911C1D85
:102CA00080FD10C01092E8051092E70580911C1D70
:102CB000816080931C1D83E08093D31F81E080930B
:102CC000980508958091A91B87FF05C01092E8051B
:102CD0001092E705F0CF80918E1D90918F1DA091ED
:102CE000901DB091911D84369105A105B10530F775
:102CF0008091E7059091E8058D9701F31092E80522
:102D00001092E705DBCF08951092E8051092E705D1
:102D1000089508951092E8051092E70581E08093E8
:102D2000980508958091490C807F803479F58091D1
:102D3000AF1B8C718C30C9F488E090E090937D05D6
:102D400080937C0582E090E090937B0580937A05E8
:102D500084E090E0909379058093780586E090E098
:102D600090936B0580936A05089524E030E03093DA
:102D70007D0520937C0582E090E090937B05809315
:102D80007A053093790520937805EACF803661F78C
:102D90008091AF1B8C718C3079F286E090E090933B
:102DA0007D0580937C0582E090E090937B05809385
:102DB0007A0524E030E0E5CF8091531D82319CF408
:102DC00087E090E090937D0580937C0582E090E021
:102DD00090937B0580937A0585E090E09093790548
:102DE00080937805089586E090E090937D05809328
:102DF0007C0581E090E090937B0580937A0584E0E8
:102E000090E0ECCF2091E5053091E60528173907D1
:102E100030F44091B21B4817190608F0C901620F3F
:102E2000732F711D8617970708F4BC01CB01089515
:102E3000462F2091A31B3091A41B821B930B609102
:102E4000E9057091EA05242F30E02C5D3F4F0F9487
:102E50008D4BCB010197181619062CF0820F931F8A
:102E6000642F0C94021728173907D4F7821B930B91
:102E7000F7CFCF938091AF1B8C718C3021F4809170
:102E8000A81BC4E281FDC0E06C2F8091C107909126
:102E9000C2070E94181790937D0580937C056C2FC4
:102EA0008091BF079091C0070E94181790937B05EF
:102EB00080937A056C2F8091BD079091BE070E9488
:102EC000181790937905809378056C2F8091BB0734
:102ED0009091BC070E94181790936B0580936A0528
:102EE000CF9108952091B21B260F3327331F181658
:102EF00019061CF0820F931F08952817390714F440
:102F0000821B930B0895CF93C62F2091A31B309162
:102F1000A41B821B930B6091E9057091EA050F9445
:102F20008D4BCB016C2F01970E9472176C2FCF91A4
:102F30000C940217CF938091AF1B8C718C3029F4C5
:102F40008091A81BC091B21B81FDC0E06C2F8091C5
:102F5000C1079091C2070E94831790937D058093CB
:102F60007C056C2F8091BF079091C0070E9483174A
:102F700090937B0580937A0590939C1D80939B1D75
:102F80006C2F8091BD079091BE070E94831790938C
:102F90007905809378056C2F8091BB079091BC07D1
:102FA0000E94831790936B0580936A05CF910895D3
:102FB000262F4091A31B5091A41B841B950B60915D
:102FC000E9057091EA050F948D4BCB01622F0197B3
:102FD0000E9472179C01215131092230310580F085
:102FE000225131092230310570F02251310922304D
:102FF000310560F08734910558F086E490E008953B
:1030000080E190E0089582E290E0089584E390E00A
:103010000895CF938091AF1B8C718C3029F48091EF
:10302000A81BC091B21B81FDC0E06C2F8091C1072D
:103030009091C2070E94D81790937D0580937C05DC
:103040006C2F8091BF079091C0070E94D817909372
:103050007B0580937A056C2F8091BD079091BE0708
:103060000E94D81790937905809378056C2F8091F2
:10307000BB079091BC070E94D81790936B05809373
:103080006A05CF910895262F6091E9057091EA05B0
:103090004091A31B5091A41B841B950B0F948D4B47
:1030A000CB01622F0C947217CF938091AF1B8C7160
:1030B0008C3029F48091A81BC091B21B81FDC0E027
:1030C0006C2F8091C1079091C2070E944318909382
:1030D0007D0580937C056C2F8091BF079091C00780
:1030E0000E94431890937B0580937A056C2F809102
:1030F000BD079091BE070E94431890937905809375
:1031000078056C2F8091BB079091BC070E944318F3
:1031100090936B0580936A05CF910895CF93C62F46
:103120006091E9057091EA052091A31B3091A41BE1
:10313000821B930B0F948D4BCB012091B21B2D3032
:1031400008F001976C2F0E9472176C2FCF910C948E
:103150000217CF938091AF1B8C718C3049F4809112
:10316000A81B81FD05C08091490CC091B21B82FD56
:10317000C0E06C2F8091C1079091C2070E948E1809
:1031800090937D0580937C056C2F8091BF07909173
:10319000C0070E948E1890937B0580937A056C2F50
:1031A0008091BD079091BE070E948E18909379057B
:1031B000809378056C2F8091BB079091BC070E948B
:1031C0008E1890936B0580936A05CF910895CF92E6
:1031D000DF92EF92FF9280911B1E85FF45C0809188
:1031E0009805882309F440C0E0912002F091210263
:1031F0001995893621E092071CF088569140F9CF45
:103200002091A31B3091A41B821B930B2091211EA4
:103210002370223031F42091DE1C3091DF1C821BA0
:10322000930B40911F1C9C01220F331F50E0A0E024
:10323000B1E0A41BB50B0F94724C6B017C01A09103
:10324000D01DB091D11D9A010F947A4CC60ED71E95
:10325000E81EF91ECD2CDE2CEF2CFF24E7FCFA949F
:10326000D092D11DC092D01DFF90EF90DF90CF90F3
:1032700008959B01AC018091AF1B807649F41092B8
:10328000D4071092D5071092D6071092D707089549
:10329000803281F472E056954795379527957A9557
:1032A000D1F72093D4073093D5074093D607509396
:1032B000D7070895803429F4569547953795279573
:1032C000F0CF8036E1F6A3E0B0E00F94034C22E0AB
:1032D00096958795779567952A95D1F76093D4074A
:1032E0007093D5078093D6079093D707089590E001
:1032F00080E0089590E080E008958F929F92AF92D1
:10330000BF92CF92DF92EF92FF929B01AC01F894B3
:103310008091C90786FF29C0C090CB07D090CC0709
:10332000E090CD07F090CE078090D5059090D6051F
:10333000A090D705B090D805A091E905B091EA0515
:1033400078940F94034CA7019601281939094A096A
:103350005B090F94164CC901FF90EF90DF90CF905E
:10336000BF90AF909F908F9008957894A091C21FC6
:10337000B091C31F0F94034CDC01CB01905CAF4FA5
:10338000BF4F2FE0B695A795979587952A95D1F7CA
:10339000E3CFDC01ED91FC910190F081E02D1994D7
:1033A000DC01ED91FC910190F081E02D1994DF9208
:1033B000EF92FF920F931F93CF93DF93EC018B015A
:1033C00080910002882321F0109200021092821D49
:1033D00040911C1D90916E1D80916E1D242F2170B7
:1033E00030E0319521953109292720783327282786
:1033F00020936E1D1092D50CD12CED2CF12CE016E3
:10340000F10658F4C7018C0F9D1F0E946797F701C2
:10341000EB52F34F8183D394F0CF8091BC1D877F13
:103420008093BC1DDF91CF911F910F91FF90EF9082
:10343000DF9008958091C1079091C2072091A31B4E
:103440003091A41B821B930B0F94DB062091490C37
:1034500022952F70243051F018F4233009F108958B
:103460002630F1F0283009F456C008950197843BC6
:10347000910568F082E090E090937D0580937C0553
:1034800081E090E090937B0580937A05089581E038
:1034900090E090937D0580937C0582E090E0F2CFF0
:1034A0009C01295731092837310598F482E090E0D2
:1034B00090937D0580937C0583E090E090937B055D
:1034C00080937A0581E090E0909379058093780568
:1034D00008950197803F910578F083E090E0909304
:1034E0007D0580937C0581E090E090937B0580933F
:1034F0007A0582E090E0E8CF81E090E090937D054E
:1035000080937C0582E090E090937B0580937A0520
:1035100083E090E0D9CF9C012B5531092A35310544
:10352000C8F482E090E090937D0580937C0583E071
:1035300090E090937B0580937A0584E090E09093EF
:1035400079058093780581E090E090936B058093F6
:103550006A0508959C01255B31092A353105A8F4D7
:1035600083E090E090937D0580937C0584E090E07B
:1035700090937B0580937A0581E090E090937905A4
:103580008093780582E090E0E0CF01978E30914003
:10359000A8F084E090E090937D0580937C0581E025
:1035A00090E090937B0580937A0582E090E0909381
:1035B00079058093780583E090E0C7CF81E090E0C3
:1035C00090937D0580937C0582E090E090937B054D
:1035D00080937A0583E090E0909379058093780555
:1035E00084E090E0B2CF0F931F93CF93DF93EC0171
:1035F000CB012C813D812330310549F5E88DF98DD2
:1036000000811181841B950B0F94DB06EA8DFB8DE5
:103610002091C51F3091C61F4091C71F5091C81FF0
:10362000DC010F94034C60587F4F8F4F9F4F3AE05F
:1036300096958795779567953A95D1F7600F711FA5
:1036400071836083DF91CF911F910F910895009155
:103650008E1D10918F1D2091901D3091911D07306E
:1036600011052105310570F3E88DF98D0081118177
:10367000841B950B0F94DB062091C51F3091C61F4C
:103680004091C71F5091C81FDC010F94034C605834
:103690007F4F8F4F9F4F2AE0969587957795679537
:1036A0002A95D1F7600F711F798B688B81E08F8B22
:1036B000C9CFAC018091D1079091D207892B09F035
:1036C0003FC080911D1D90911E1D892BC9F18091D5
:1036D0007C0590917D058617970741F46091C1079D
:1036E0007091C2078AE19FE00C94F31A80917A05E9
:1036F00090917B058617970739F46091BF07709109
:10370000C0078AEF9EE0F0CF80917805909179050F
:103710008617970739F46091BD077091BE078AED4F
:103720009EE0E2CF80916A0590916B05861797071E
:1037300039F46091BB077091BC078AEB9EE0D4CF4F
:1037400008950F931F930E94ABE160936C057093F3
:103750006D0580936E0590936F0580916C05909137
:103760006D05A0916E05B0916F054091CB0750910A
:10377000CC076091CD077091CE07841B950BA60BEB
:10378000B70B8093D9059093DA05A093DB05B0932E
:10379000DC054091D9055091DA056091DB05709107
:1037A000DC058091D4079091D507A091D607B09100
:1037B000D707481759076A077B0768F480918E1D61
:1037C00090918F1DA091901DB091911D892B8A2BF6
:1037D0008B2B09F0B3C28091E7059091E805019623
:1037E0009093E8058093E7058091C90780628093F4
:1037F000C9078091CB079091CC07A091CD07B091DC
:10380000CE078093D5059093D605A093D705B093A6
:10381000D80580916C0590916D05A0916E05B091D1
:103820006F058093CB079093CC07A093CD07B093FF
:10383000CE074091D9055091DA056091DB05709172
:10384000DC058091DD059091DE05A091DF05B0914A
:10385000E00584179507A607B70700F14091DD053D
:103860005091DE056091DF057091E0058091E105E2
:103870009091E205A091E305B091E40584179507C6
:10388000A607B70758F086E090E09093E80580938C
:10389000E70580911C1D816080931C1D8091DD05D2
:1038A0009091DE05A091DF05B091E0058093E105E0
:1038B0009093E205A093E305B093E4058091D905C8
:1038C0009091DA05A091DB05B091DC058093DD05D0
:1038D0009093DE05A093DF05B093E0058091E505A8
:1038E0009091E60501962091E7053091E805821751
:1038F000930721F420911C1D20FD26C02091E7058F
:103900003091E8058217930708F458C0E091E70565
:10391000F091E8053197E730F10508F08BC0409150
:10392000D9055091DA056091DB057091DC05882797
:10393000E356F34E8F4F0D94634CF51C391DF51C67
:10394000391DF51CF51C391D81E090E09093E805C8
:103950008093E70580919D0590919E05A0919F051C
:10396000B091A0058093990590939A05A0939B052B
:10397000B0939C0580916C0590916D05A0916E05AA
:10398000B0916F0580939D0590939E05A0939F0530
:10399000B093A00580918E1D90918F1DA091901DD8
:1039A000B091911D0296A11DB11D80938E1D909323
:1039B0008F1DA093901DB093911DA8CF80911C1DC9
:1039C0008E7F80931C1D8091CB1D8F5F8093CB1DBC
:1039D0001092D4071092D5071092D6071092D707ED
:1039E0001092E8051092E70591CF8091DD05909146
:1039F000DE05A091DF05B091E00584179507A607C5
:103A0000B707C0F480911C1D8E7F80931C1D809190
:103A1000CB1D8F5F8093CB1D1092D4071092D507DA
:103A20001092D6071092D70782E090E09093E805B5
:103A30008093E70580911C1D80FF80C1E091E70520
:103A4000F091E8053197E730F10508F075C09091E5
:103A5000AF1B9295969593708827EE5CF24E8F4F30
:103A60000D94634C361E5B1D361E5B1D031ED21D5E
:103A7000031E8091DD059091DE05A091DF05B091D8
:103A8000E005481759076A077B07A0F680911C1DBF
:103A90008E7F80931C1D8091CB1D8F5F8093CB1DEB
:103AA0001092D4071092D5071092D6071092D7071C
:103AB00081E090E0BBCF9230A9F008F05BC091307C
:103AC00009F033C18091D9059091DA05A091DB0509
:103AD000B091DC0553E0B695A795979587955A95D3
:103AE000D1F722C08091D9059091DA05A091DB052C
:103AF000B091DC054091D9055091DA056091DB0564
:103B00007091DC0513E0B695A795979587951A9562
:103B1000D1F7F4E07695679557954795FA95D1F7E3
:103B2000840F951FA61FB71F8093D4079093D507C6
:103B3000A093D607B093D70780914B0C86FFFEC0A9
:103B4000E091E705F091E805EE0FFF1FEB55FA4F06
:103B5000208131818091A31B9091A41B820F931F20
:103B60000F94DB066091E7057091E8051F910F91B6
:103B70000C94591B8091D9059091DA05A091DB0531
:103B8000B091DC054091D9055091DA056091DB05D3
:103B90007091DC05E2E0B695A79597958795EA9533
:103BA000D1F7B7CF923069F0C8F4913009F0BDC0B9
:103BB0008091D9059091DA05A091DB05B091DC05E3
:103BC000B3CF8091D9059091DA05A091DB05B09132
:103BD000DC05880F991FAA1FBB1FA6CF2091D9050E
:103BE0003091DA054091DB055091DC05A3E0B0E0AF
:103BF0000F94034C6093D4077093D5078093D60736
:103C00009093D70799CF923009F108F458CF80915B
:103C1000D9059091DA05A091DB05B091DC054091C2
:103C2000D9055091DA056091DB057091DC0532E031
:103C3000B695A795979587953A95D1F703E0769530
:103C40006795579547950A95D1F76ACF8091D90521
:103C50009091DA05A091DB05B091DC0542E0B695C4
:103C6000A795979587954A95D1F75ECF9230C9F081
:103C700080F5913009F059C08091D9059091DA050D
:103C8000A091DB05B091DC054091D9055091DA0592
:103C90006091DB057091DC05B695A79597958795A2
:103CA000CDCF8091D9059091DA05A091DB05B09137
:103CB000DC054091D9055091DA056091DB057091E2
:103CC000DC0512E0B695A795979587951A95D1F7DB
:103CD00027CF8091D9059091DA05A091DB05B091AD
:103CE000DC050091D9051091DA052091DB053091B2
:103CF000DC054091D9055091DA056091DB057091A2
:103D0000DC05B695A79597958795F2E0769567952A
:103D100057954795FA95D1F7840F951FA61FB71FA2
:103D2000800F911FA21FB31FFFCE1092D4071092D5
:103D3000D5071092D6071092D707FECE1F910F918C
:103D400008950E94ABE160936605709367058093C8
:103D50006805909369058091660590916705A0912B
:103D60006805B09169054091D41F5091D51F6091AD
:103D7000D61F7091D71F841B950BA60BB70B809392
:103D8000DD059093DE05A093DF05B093E0058091FB
:103D9000D41F9091D51FA091D61FB091D71F892B0A
:103DA0008A2B8B2B61F58091D9059091DA05A09132
:103DB000DB05B091DC05880F991FAA1FBB1F8093FC
:103DC000620590936305A0936405B0936505109216
:103DD000DD051092DE051092DF051092E00580915E
:103DE000660590916705A0916805B091690580937B
:103DF000D41F9093D51FA093D61FB093D71F409187
:103E0000DD055091DE056091DF057091E005809140
:103E1000A1059091A205A091A305B091A405481712
:103E200059076A077B0708F4DBC08091D11F909186
:103E3000D21F01969093D21F8093D11F8091660567
:103E400090916705A0916805B09169058093D41F92
:103E50009093D51FA093D61FB093D71F80911B1EA0
:103E600085FF2BC08091AB1B8F7741F0833029F504
:103E70008091D11F9091D21F0697F9F4E091200212
:103E8000F09121021995893621E092071CF088569D
:103E90009140F9CF2091A31B3091A41B821B930B5F
:103EA0002091211E2370223021F42091E01C821BDE
:103EB00091099093D11D8093D01D8091AB1B8F777A
:103EC000C1F481E0809398058091DD059091DE0535
:103ED000A091DF05B091E005B695A79597958795D8
:103EE0008093A1059093A205A093A305B093A40588
:103EF0000895833009F074C04091DD055091DE05CE
:103F00006091DF057091E0058091620590916305F5
:103F1000A0916405B0916505481759076A077B07AA
:103F200068F58091DD059091DE05A091DF05B091E7
:103F3000E005B695A795979587958093A1059093F1
:103F4000A205A093A305B093A4052091DD053091AF
:103F5000DE054091DF055091E005A3E0B0E00F944D
:103F6000034C969587957795679560936205709356
:103F70006305809364059093650508958091D11F32
:103F80009091D21F069771F4109298058091E705E1
:103F90009091E8054397F0F48091E7059091E8054A
:103FA000429614C08091D11F9091D21F0497C9F4FA
:103FB00081E0809398058091E7059091E80542970C
:103FC00048F08091E7059091E80542979093E805C5
:103FD0008093E70581E090E09093D21F8093D11FFA
:103FE00008958091D11F9091D21F039799F781E096
:103FF00080939805CBCF0E94ABE160936C057093E2
:104000006D0580936E0590936F0580916C0590917E
:104010006D05A0916E05B0916F054091CB07509151
:10402000CC076091CD077091CE07841B950BA60B32
:10403000B70B8093D9059093DA05A093DB05B09375
:10404000DC054091D9055091DA056091DB0570914E
:10405000DC058091D4079091D507A091D607B09147
:10406000D707481759076A077B0708F451C28091A0
:10407000CB079091CC07A091CD07B091CE07892BAB
:104080008A2B8B2B09F4D0C08091D5059091D60551
:10409000A091D705B091D805892B8A2B8B2B09F4D9
:1040A000C3C02091CB073091CC074091CD075091F0
:1040B000CE078091D5059091D605A091D705B091F6
:1040C000D805281B390B4A0B5B0BA3E0B0E00F941B
:1040D000034C969587957795679560935E057093E9
:1040E0005F05809360059093610580911C1D816040
:1040F00080931C1D4091D9055091DA056091DB0534
:104100007091DC0580915E0590915F05A09160053E
:10411000B091610584179507A607B70708F0D6C0C8
:1041200080915A0590915B05A0915C05B0915D0569
:1041300032E0880F991FAA1FBB1F3A95D1F78093D1
:104140005A0590935B05A0935C05B0935D05809143
:104150005A0590915B05A0915C05B0915D050196B3
:10416000A11DB11D80935A0590935B05A0935C053A
:10417000B0935D058091E7059091E80501969093D5
:10418000E8058093E7058091E7059091E8050196A1
:104190009093E8058093E7052091E7053091E805C5
:1041A0008091E5059091E60528173907E8F14091DF
:1041B0005A0550915B0560915C0570915D054F3B20
:1041C0005F4F6D4F7D4F09F0BCC08091A505909168
:1041D000A605059739F181E090E09093A8058093BA
:1041E000A7058BE090E09093AA058093A90583E151
:1041F00090E09093AC058093AB058EE190E09093B6
:10420000AE058093AD0585E090E09093A605809380
:10421000A50584E08093B31B84E290E09093E605CB
:104220008093E5050E94BE138091CB079091CC0747
:10423000A091CD07B091CE078093D5059093D60578
:10424000A093D705B093D80580916C0590916D052A
:10425000A0916E05B0916F058093CB079093CC072A
:10426000A093CD07B093CE0780914B0C86FF50C131
:104270008091701D81FD4CC12091E7053091E805CA
:104280008091E9059091EA0521503109289FA0010C
:10429000299F500D389F500D11248091A31B9091A0
:1042A000A41B840F951F0F94DB069C019091AF1BFC
:1042B0009C719C3021F48091980581111CC1609102
:1042C000E7057091E805C9010C94591B80915A05C6
:1042D00090915B05A0915C05B0915D05880F991FD9
:1042E000AA1FBB1F80935A0590935B05A0935C05A2
:1042F000B0935D0580915A0590915B05A0915C0596
:10430000B0915D050196A11DB11D80935A05909352
:104310005B05A0935C05B0935D058091E7059091E6
:10432000E80501969093E8058093E7056091D9052B
:104330007091DA058091DB059091DC050E943919B6
:104340002BCF40915A0550915B0560915C057091AF
:104350005D054F375B4F6F4F7D4D31F58091A50562
:104360009091A605049709F45DCF88E090E09093C2
:10437000A8058093A7058BE090E09093AA05809311
:10438000A90589E190E09093AC058093AB058BE1A2
:1043900090E09093AE058093AD0584E090E090931B
:1043A000A6058093A50536CF40915A0550915B052F
:1043B00060915C0570915D054F37574F6F4F7B4D96
:1043C00011F58091A5059091A605039709F42ACFD0
:1043D00088E090E09093A8058093A7058AE090E09C
:1043E0009093AA058093A90588E190E09093AC058D
:1043F0008093AB058BE190E09093AE058093AD0583
:1044000083E090E002CF40915A0550915B056091A6
:104410005C0570915D054D3B5F4F674F7D4F11F51A
:104420008091A5059091A605029709F4FBCE81E045
:1044300090E09093A8058093A7058CE090E090937E
:10444000AA058093A90581E190E09093AC05809343
:10445000AB058DE190E09093AE058093AD0582E0D1
:1044600090E0D3CE40915A0550915B0560915C0578
:1044700070915D054D3F5F4F674F7F4FC9F480914D
:10448000A5059091A605019709F4CCCE81E090E0B6
:104490009093A8058093A70522E130E03093AA0508
:1044A0002093A9059093A6058093A50582E0B2CE3E
:1044B0002091E7053091E80501968217930708F0EF
:1044C000B3CE80911C1D8E7F80931C1D8091D11FC7
:1044D0009091D21F892B59F08091BC1D80618093EF
:1044E000BC1D8091CB1D8F5F8093CB1D9DCE809195
:1044F000BC1D8F7EF4CF8091E7059091E805609117
:10450000B21B680F792F711DC90188599E4FDCCEEF
:1045100008950E94ABE160936C0570936D058093E4
:104520006E0590936F0580916C0590916D05A0913B
:104530006E05B0916F05409194055091950560917D
:10454000960570919705841B950BA60BB70B80936E
:10455000D9059093DA05A093DB05B093DC05409173
:10456000D9055091DA056091DB057091DC058091E9
:10457000D4079091D507A091D607B091D7074817D7
:1045800059076A077B0708F481C18091D31F8F5FA9
:104590008093D31F8091940590919505A0919605E5
:1045A000B0919705892B8A2B8B2B09F4F0C0809151
:1045B000900590919105A0919205B0919305892B5A
:1045C0008A2B8B2B09F4E3C080919405909195057B
:1045D000A0919605B0919705409190055091910555
:1045E0006091920570919305841B950BA60BB70BF8
:1045F000880F991FAA1FBB1F80935E0590935F05CC
:10460000A0936005B09361054091D9055091DA05FA
:104610006091DB057091DC0580915E0590915F05EE
:10462000A0916005B0916105481759076A077B079B
:1046300008F4B2C08091D31F8F5F8093D31F809105
:10464000D31F8F5F8093D31F8091D31F8C3099F03D
:1046500080911C1D8E7F80931C1D8091CB1D8F5FD0
:104660008093CB1D81E08093D31F81E090E09093F5
:10467000E8058093E7058091940590919505A091B8
:104680009605B09197058093900590939105A0931E
:104690009205B093930580916C0590916D05A09162
:1046A0006E05B0916F058093940590939505A09346
:1046B0009605B09397058091D31F8C3069F0809157
:1046C000CB079091CC07A091CD07B091CE07892B55
:1046D0008A2B8B2B09F0DAC08091E7059091E805D1
:1046E00001969093E8058093E7058091490C807FBF
:1046F000803609F05CC08091E7059091E805079746
:1047000009F05EC080919D0590919E05A0919F0546
:10471000B091A0058093990590939A05A0939B056D
:10472000B0939C0580916C0590916D05A0916E05EC
:10473000B0916F0580939D0590939E05A0939F0572
:10474000B093A00580911C1D816080931C1D8091F9
:104750008E1D90918F1DA091901DB091911D01967D
:10476000A11DB11D80938E1D90938F1DA093901D50
:10477000B093911D8091980591E0892780939805C9
:1047800081E090E09093E8058093E70519C080E010
:1047900091EEA5EFB5E030CF6091D9057091DA05C3
:1047A0008091DB059091DC050E94391964CF80343B
:1047B00039F48091E7059091E805059709F4A2CFB7
:1047C00081E08093D31F8091CB079091CC07A0917B
:1047D000CD07B091CE078093D5059093D605A093D1
:1047E000D705B093D80580916C0590916D05A09187
:1047F0006E05B0916F058093CB079093CC07A09383
:10480000CD07B093CE0780914B0C86FF3FC08091BF
:10481000701D81FD3BC02091E7053091E805809136
:10482000E9059091EA0521503109289FA001299FAF
:10483000500D389F500D11248091A31B9091A41B03
:10484000840F951F0F94DB069C019091AF1B9C7108
:104850009C3041F480919805882321F08091A81B19
:1048600081FF07C06091E7057091E805C9010C94CC
:10487000591B8091E7059091E8056091B21B680F84
:10488000792F711DC90188599E4FF1CF0895CF929C
:10489000DF92EF92FF92CF93DF93F894C091D11FF4
:1048A000D091D21FC090CB07D090CC07E090CD071D
:1048B000F090CE070E94ABE160937405709375058C
:1048C00080937605909377057894209174053091C4
:1048D000750540917605509177052C193D094E09D3
:1048E0005F09A091C21FB091C31F0F94034CDC015C
:1048F000CB01905CAF4FBF4F2FE0B695A795979532
:1049000087952A95D1F7CC0FDD1FCB55DA4F48811B
:1049100059812091A31B3091A41B240F351F820FB6
:10492000931F803D22E092074CF0805D9240DF9122
:10493000CF91FF90EF90DF90CF90089597FFF7CF42
:1049400088599E4FF4CF0E94ABE160936C05709341
:104950006D0580936E0590936F05E0918505F0914C
:104960008605808190918405892321E030E011F44F
:1049700030E020E08091EB058217130609F06EC14C
:1049800080916C0590916D05A0916E05B0916F05B9
:104990008093DD059093DE05A093DF05B093E005DD
:1049A00080916C0590916D05A0916E05B0916F0599
:1049B0004091CB075091CC076091CD077091CE0705
:1049C000841B950BA60BB70B8093D9059093DA0542
:1049D000A093DB05B093DC054091D9055091DA0531
:1049E0006091DB057091DC058091D4079091D5072B
:1049F000A091D607B091D707481759076A077B07D8
:104A000008F426C18091C90780628093C90780910C
:104A1000E7059091E805892B09F496C08091C907B4
:104A200080628093C9078091E7059091E805813005
:104A3000910509F092C09093D21F8093D11F86E414
:104A400090E09093EA058093E90580919D0590910F
:104A50009E05A0919F05B091A00580939905909324
:104A60009A05A0939B05B0939C0580916C0590914D
:104A70006D05A0916E05B0916F0580939D05909393
:104A80009E05A0939F05B093A00580911C1D816099
:104A900080931C1D6091D9057091DA058091DB052A
:104AA0009091DC0552E0660F771F881F991F5A9579
:104AB000D1F727E030E040E050E00F94164CCA01F7
:104AC000B9010E94391980918E1D90918F1DA0917E
:104AD000901DB091911D0196A11DB11D80938E1D59
:104AE00090938F1DA093901DB093911D8091CB0743
:104AF0009091CC07A091CD07B091CE078093D505BA
:104B00009093D605A093D705B093D80580916C05F6
:104B100090916D05A0916E05B0916F058093CB07C4
:104B20009093CC07A093CD07B093CE078091D40784
:104B30009091D507A091D607B091D7078135934CB6
:104B4000A105B10508F489C01092D4071092D507C9
:104B50001092D6071092D70708958091E70590919B
:104B6000E80582309105F1F49093D21F8093D11F14
:104B700088E290E09093EA058093E9052091D905B9
:104B80003091DA054091DB055091DC05A7E0B0E0FB
:104B90000F94034C32E096958795779567953A95F3
:104BA000D1F742C08091E7059091E80583309105E7
:104BB00099F49093D21F8093D11F86E490E0909354
:104BC000EA058093E9056091D9057091DA05809135
:104BD000DB059091DC0528C08091E7059091E80500
:104BE0008430910521F59093D21F8093D11F86E4E4
:104BF00090E09093EA058093E9056091D905709162
:104C0000DA058091DB059091DC0542E0660F771FA5
:104C1000881F991F4A95D1F727E030E040E050E027
:104C20000F94164CCA01B9010E9439195FCF8091C7
:104C3000E7059091E8058530910509F495CF8091BD
:104C4000E7059091E8058630910509F04FCFB1CF87
:104C50008091C9078F7D8093C90708958091C90706
:104C600085FF62C080916C0590916D05A0916E05E5
:104C7000B0916F054091DD055091DE056091DF0533
:104C80007091E005841B950BA60BB70B4091560560
:104C9000509157056091580570915905440F551F63
:104CA000661F771F2091E7053091E80548175907DF
:104CB0006A077B07D8F4232B99F02091E705309100
:104CC000E8052630310561F02091CB1D2F5F209340
:104CD000CB1D21E030E03093E8052093E70514C0B8
:104CE00020911C1D216020931C1DF3CF263031051F
:104CF000A1F421E030E03093E8052093E70520910E
:104D0000CB1D2F5F2093CB1D8093560590935705A5
:104D1000A0935805B093590508952091E705309167
:104D2000E8052F5F3F4FD7CF8091C90785FD95CF0D
:104D30008091C90780628FCFCF92DF92EF92FF926E
:104D40008091AF1B8C718C3031F080914B0C807353
:104D5000803309F0F1C00E94ABE160936605709367
:104D60006705809368059093690580916605909129
:104D70006705A0916805B09169054091D41F5091D5
:104D8000D51F6091D61F7091D71F841B950BA60B62
:104D9000B70B8093DD059093DE05A093DF05B093FC
:104DA000E0054091DD055091DE056091DF057091D1
:104DB000E0058091A1059091A205A091A305B09175
:104DC000A40584179507A607B70708F0B5C080911A
:104DD000D41F9091D51FA091D61FB091D71F892BBA
:104DE0008A2B8B2B09F498C08091CB079091CC072C
:104DF000A091CD07B091CE07892B8A2B8B2B09F47C
:104E00008BC08091D5059091D605A091D705B09122
:104E1000D805892B8A2B8B2B09F47EC02091CB07D8
:104E20003091CC074091CD075091CE078091D505A8
:104E30009091D605A091D705B091D805C090DD0519
:104E4000D090DE05E090DF05F090E005281B390BDF
:104E50004A0B5B0BA3E0B0E00F94034CC616D706D9
:104E6000E806F90608F46DC08091D11F9091D21F19
:104E7000892BF1F120918B052223D1F18091D31F51
:104E80009091490C92959F70882381F0E091D31FF7
:104E90004091D11F5091D21FF0E0EE0FFF1FE95556
:104EA000FA4F6081718164177507B1F01092D31FBA
:104EB000E5EAF5E081E09817D8F04091D11F5091D4
:104EC000D21F628173816417750719F4308123172B
:104ED00069F08F5F3296EFCF8091D31F8F5F809301
:104EE000D31F8091D31F981718F481E08093D31FAC
:104EF0008091D11F9091D21F80938B0581E090E02B
:104F00009093D21F8093D11F1092A1051092A205F9
:104F10001092A3051092A4058091660590916705F3
:104F2000A0916805B09169058093D41F9093D51F17
:104F3000A093D61FB093D71FFF90EF90DF90CF9034
:104F400008958091D11F9091D21F892B29F38091D0
:104F5000D11F9091D21F01969093D21F8093D11FA1
:104F60008091DD059091DE05A091DF05B091E0050F
:104F700022E0B695A795979587952A95D1F78093C6
:104F8000A1059093A205A093A305B093A405C4CF57
:104F9000CF92DF92EF92FF920F931F938091AF1BFE
:104FA0008C718C3029F080914B0C8073803319F513
:104FB0000E94ABE160936605709367058093680576
:104FC00090936905E0918205F0918305808190912D
:104FD00081058923B9F08091660590916705A091BC
:104FE0006805B09169058093900590939105A09311
:104FF0009205B09393051F910F91FF90EF90DF9072
:10500000CF9008958091660590916705A0916805FD
:10501000B09169054091D41F5091D51F6091D61F62
:105020007091D71F841B950BA60BB70B8093DD05E2
:105030009093DE05A093DF05B093E0054091DD0578
:105040005091DE056091DF057091E0058091A1052A
:105050009091A205A091A305B091A405841795078E
:10506000A607B70740F68091D41F9091D51FA09155
:10507000D61FB091D71F892B8A2B8B2B09F48FC099
:1050800080918C0590918D05A0918E05B0918F0532
:10509000892B8A2B8B2B09F482C08091D11F909190
:1050A000D21F892B49F08091D11F9091D21F019678
:1050B0009093D21F8093D11F2091D41F3091D51F80
:1050C0004091D61F5091D71F80918C0590918D05EE
:1050D000A0918E05B0918F05C090DD05D090DE05C2
:1050E000E090DF05F090E005281B390B4A0B5B0BC5
:1050F000A3E0B0E00F94034C96958795779567955C
:10510000C616D706E806F90608F486C04091900551
:105110005091910560919205709193050091D41F73
:105120001091D51F2091D61F3091D71F8091660511
:1051300090916705A0916805B0916905C0909005B0
:10514000D0909105E0909205F0909305401B510B93
:10515000620B730B8C199D09AE09BF0948175907DB
:105160006A077B0708F043C08091D11F9091D21F3E
:10517000892BB1F18091D11F9091D21F089781F1B5
:105180008091D11F9091D21F892B09F040C01092BD
:10519000A1051092A2051092A3051092A40580917A
:1051A000D41F9091D51FA091D61FB091D71F809387
:1051B0008C0590938D05A0938E05B0938F058091FB
:1051C000660590916705A0916805B0916905809387
:1051D000D41F9093D51FA093D61FB093D71F0BCF8A
:1051E00081E090E09093D21F8093D11FD0CF809127
:1051F000D11F9091D21F892B39F08091D11F9091AE
:10520000D21F059709F0BCCF85E090E0EBCF10925C
:10521000D21F1092D11FBBCF8091D11F9091D21F6E
:10522000892B09F4BCCF8091DD059091DE05A0911A
:10523000DF05B091E00522E0B695A7959795879593
:105240002A95D1F78093A1059093A205A093A30579
:10525000B093A405A4CFCF92DF92EF92FF920F9369
:105260001F930E94ABE160936C0570936D05809372
:105270006E0590936F05E0918505F091860580811C
:10528000909184058923B9F080916C0590916D050A
:10529000A0916E05B0916F0580939405909395054C
:1052A000A0939605B09397051F910F91FF90EF90F3
:1052B000DF90CF90089580916C0590916D05A0913D
:1052C0006E05B0916F054091CB075091CC0760916E
:1052D000CD077091CE07841B950BA60BB70B80935F
:1052E000D9059093DA05A093DB05B093DC054091D6
:1052F000D9055091DA056091DB057091DC0580914C
:10530000D4079091D507A091D607B091D707481739
:1053100059076A077B0740F28091E7059091E805FD
:1053200001969093E8058093E7058091C907806214
:105330008093C9078091CB079091CC07A091CD07AE
:10534000B091CE07892B8A2B8B2B09F40FC2809149
:10535000D5059091D605A091D705B091D805892B98
:105360008A2B8B2B09F402C28091E7059091E80506
:10537000419771F08091E7059091E805839741F09E
:1053800080911C1D80FDE3C18091BC1D84FDDFC1A7
:105390008091CB079091CC07A091CD07B091CE071B
:1053A0000091D5051091D6052091D7053091D805EB
:1053B0004091D9055091DA056091DB057091DC05CB
:1053C000801B910BA20BB30B880F991FAA1FBB1F49
:1053D00084179507A607B70708F0A6C11092D4074F
:1053E0001092D5071092D6071092D7078091C9075F
:1053F0008F7B8093C90740919405509195056091EA
:10540000960570919705C090CB07D090CC07E0909F
:10541000CD07F090CE0780916C0590916D05A0911D
:105420006E05B0916F05009194051091950520913E
:105430009605309197054C195D096E097F09801B0F
:10544000910BA20BB30B481759076A077B0708F0AB
:10545000F6C081E090E09093E8058093E7058091A5
:105460009D0590919E05A0919F05B091A005809308
:10547000990590939A05A0939B05B0939C05809104
:105480006C0590916D05A0916E05B0916F058093AC
:105490009D0590939E05A0939F05B093A0058091D4
:1054A0001C1D80FFC3C080918E1D90918F1DA09107
:1054B000901DB091911D0196A11DB11D80938E1D6F
:1054C00090938F1DA093901DB093911D8091AF1B61
:1054D0008C718C3029F080914B0C8073803341F5B6
:1054E0008091490C807F803409F0B0C08091E7053D
:1054F0009091E805019761F48091D11F9091D21F9E
:105500000197A1F08091D11F9091D21F029771F065
:105510008091E7059091E805439709F0E3C08091F9
:10552000D11F9091D21F049709F0DCC0109298050A
:1055300080911C1D816080931C1D8091BC1D8F7EFD
:105540008093BC1D8091D5059091D605A091D7057B
:10555000B091D8054091CB075091CC076091CD0711
:105560007091CE0700916C0510916D0520916E052C
:1055700030916F05800F911FA21FB31F841B950BE5
:10558000A60BB70B8093D5059093D605A093D705AE
:10559000B093D80580916C0590916D05A0916E0532
:1055A000B0916F058093CB079093CC07A093CD0764
:1055B000B093CE0780914B0C86FF76CE8091701D04
:1055C00081FD72CE2091E7053091E8058091E905D3
:1055D0009091EA0521503109289FA001299F500D83
:1055E000389F500D11248091A31B9091A41B840F10
:1055F000951F0F94DB069C019091AF1B9C719C3012
:1056000041F480919805882321F08091A81B81FFA7
:10561000B6C06091E7057091E805C9011F910F912F
:10562000FF90EF90DF90CF900C94591B10928E1D3D
:1056300010928F1D1092901D1092911D47CF83E103
:1056400090E09093E8058093E70540CF803609F01D
:10565000A3C08091E7059091E805019751F48091EE
:10566000D31F813009F462CF8091D31F823009F4B7
:105670005DCF8091E7059091E805439751F48091C3
:10568000D31F823009F452CF8091D31F833009F4A5
:105690004DCF8091E7059091E805019741F4809105
:1056A000D31F8430B9F18091D31F853099F1809157
:1056B000E7059091E805439741F48091D31F853029
:1056C00049F18091D31F863029F180911C1D80FD06
:1056D00025C080911C1D8E7F80931C1D8091BC1D58
:1056E00080612ECF8091E7059091E805019731F414
:1056F0008091D11F9091D21F059761F08091E705AD
:105700009091E805439709F78091D11F9091D21F9E
:105710000797D9F681E0809398050ACF8091CB1D39
:105720008F5F8093CB1DD5CF80911C1D80FF05C05E
:105730008091CB1D8F5F8093CB1D80911C1D8E7F30
:1057400080931C1D8091BC1D8F7E8093BC1D609139
:10575000D9057091DA058091DB059091DC050E94F6
:1057600039198091C90780648093C9078091CB075C
:105770009091CC07A091CD07B091CE0703CF809137
:10578000E7059091E8056091B21B680F792F711DB4
:10579000C90188599E4F42CF803809F096CF809139
:1057A000E7059091E805019751F48091D31F81306E
:1057B00009F4BCCE8091D31F823009F4B7CE80911A
:1057C000E7059091E805439751F48091D31F83300A
:1057D00009F4ACCE8091D31F843009F4A7CE809118
:1057E000E7059091E805019751F48091D31F85302A
:1057F00009F490CF8091D31F863009F48BCF80912C
:10580000E7059091E805439709F05FCF8091D31F9A
:10581000873009F47FCF8091D31F883009F055CFAE
:1058200079CFCF92DF92EF92FF92CF93DF930E94D6
:10583000ABE160936605709367058093680590936C
:1058400069058091660590916705A0916805B09102
:1058500069054091D41F5091D51F6091D61F70915A
:10586000D71F841B950BA60BB70B8093DD05909378
:10587000DE05A093DF05B093E0054091DD05509172
:10588000DE056091DF057091E0058091A1059091A2
:10589000A205A091A305B091A405481759076A076E
:1058A0007B0708F449C08091660590916705A09137
:1058B0006805B09169058093D41F9093D51FA0937C
:1058C000D61FB093D71F80911C1D80FD5CC00E9425
:1058D000ABE16093CB077093CC078093CD07909397
:1058E000CE070E94ABE16B017C01C091B21B2C2F53
:1058F00030E050E040E060E87DE88BE590E00F9418
:10590000164CC21AD30AE40AF50AC092D505D09201
:10591000D605E092D705F092D805D0E0D093E805FF
:10592000C093E7058091CB1D8F5F8093CB1D809145
:105930001C1D816080931C1D80919D0590919E058A
:10594000A0919F05B091A0054091990550919A05AD
:1059500060919B0570919C05841B950BA60BB70B62
:10596000B695A795979587958093A1059093A205E5
:10597000A093A305B093A405DF91CF91FF90EF9082
:10598000DF90CF90089586E090E09093E8058093B3
:10599000E705D2CFCF92DF92EF92FF920E94ABE168
:1059A0006093660570936705809368059093690519
:1059B0008091660590916705A0916805B091690591
:1059C0004091D41F5091D51F6091D61F7091D71F61
:1059D000841B950BA60BB70B8093DD059093DE051A
:1059E000A093DF05B093E0058091D41F9091D51F5F
:1059F000A091D61FB091D71F892B8A2B8B2BC1F476
:105A00001092DD051092DE051092DF051092E00580
:105A10008091660590916705A0916805B091690530
:105A20008093D41F9093D51FA093D61FB093D71FF8
:105A30004091DD055091DE056091DF057091E00534
:105A40008091A1059091A205A091A305B091A40514
:105A5000481759076A077B0708F4DEC02091D41F56
:105A60003091D51F4091D61F5091D71F80918C0542
:105A700090918D05A0918E05B0918F05281B390B53
:105A80004A0B5B0BA3E0B0E00F94034C969587950F
:105A900077956795609362057093630580936405BD
:105AA000909365058091D41F9091D51FA091D61F2A
:105AB000B091D71F80938C0590938D05A0938E0590
:105AC000B0938F054091DD055091DE056091DF05B3
:105AD0007091E0058091620590916305A091640545
